:100000000C9446000C9450000C9450000C9450003A
:100010000C9450000C9450000C9450000C94500020
:100020000C9450000C9450000C9450000C94500010
:100030000C9450000C9450000C9450000C94500000
:100040000C9450000C9450000C9450000C945000F0
:100050000C9450000C9450000C9450000C945000E0
:100060000C9450000C9450000C9450000C945000D0
:100070000C9450000C9450000C9450000C945000C0
:100080000C9450000C9450000C94500011241FBE8E
:10009000CFEFD0E1DEBFCDBF0E9452000C94ED7FC8
:1000A0000C9400008FEF80936400E5E6F0E080831D
:1000B0002FEF31EE94E0215030409040E1F700C046
:1000C000000010822FEF31EE94E02150304090403C
:1000D000E1F700C0000080832FEF31EE94E0215063
:1000E00030409040E1F700C0000010822FEF31EE69
:1000F00094E0215030409040E1F700C00000808340
:100100002FEF31EE94E0215030409040E1F700C0F5
:10011000000010822FEF31EE94E0215030409040EB
:10012000E1F700C0000080832FEF31EE94E0215012
:1001300030409040E1F700C0000010822FEF31EE18
:1001400094E0215030409040E1F700C000008083EF
:100150002FEF31EE94E0215030409040E1F700C0A5
:10016000000010822FEF31EE94E02150304090409B
:10017000E1F700C0000080832FEF31EE94E02150C2
:1001800030409040E1F700C0000010822FEF31EEC8
:1001900094E0215030409040E1F700C0000080839F
:1001A0002FEF31EE94E0215030409040E1F700C055
:1001B000000010822FEF31EE94E02150304090404B
:1001C000E1F700C0000080832FEF31EE94E0215072
:1001D00030409040E1F700C0000010822FEF31EE78
:1001E00094E0215030409040E1F700C0000080834F
:1001F0002FEF31EE94E0215030409040E1F700C005
:10020000000010822FEF31EE94E0215030409040FA
:10021000E1F700C0000080832FEF31EE94E0215021
:1002200030409040E1F700C0000010822FEF31EE27
:1002300094E0215030409040E1F700C000008083FE
:100240002FEF31EE94E0215030409040E1F700C0B4
:10025000000010822FEF31EE94E0215030409040AA
:10026000E1F700C0000080832FEF31EE94E02150D1
:1002700030409040E1F700C0000010822FEF31EED7
:1002800094E0215030409040E1F700C000008083AE
:100290002FEF31EE94E0215030409040E1F700C064
:1002A000000010822FEF31EE94E02150304090405A
:1002B000E1F700C0000080832FEF31EE94E0215081
:1002C00030409040E1F700C0000010822FEF31EE87
:1002D00094E0215030409040E1F700C0000080835E
:1002E0002FEF31EE94E0215030409040E1F700C014
:1002F000000010822FEF31EE94E02150304090400A
:10030000E1F700C0000080832FEF31EE94E0215030
:1003100030409040E1F700C0000010822FEF31EE36
:1003200094E0215030409040E1F700C0000080830D
:100330002FEF31EE94E0215030409040E1F700C0C3
:10034000000010822FEF31EE94E0215030409040B9
:10035000E1F700C0000080832FEF31EE94E02150E0
:1003600030409040E1F700C0000010822FEF31EEE6
:1003700094E0215030409040E1F700C000008083BD
:100380002FEF31EE94E0215030409040E1F700C073
:10039000000010822FEF31EE94E021503040904069
:1003A000E1F700C0000080832FEF31EE94E0215090
:1003B00030409040E1F700C0000010822FEF31EE96
:1003C00094E0215030409040E1F700C0000080836D
:1003D0002FEF31EE94E0215030409040E1F700C023
:1003E000000010822FEF31EE94E021503040904019
:1003F000E1F700C0000080832FEF31EE94E0215040
:1004000030409040E1F700C0000010822FEF31EE45
:1004100094E0215030409040E1F700C0000080831C
:100420002FEF31EE94E0215030409040E1F700C0D2
:10043000000010822FEF31EE94E0215030409040C8
:10044000E1F700C0000080832FEF31EE94E02150EF
:1004500030409040E1F700C0000010822FEF31EEF5
:1004600094E0215030409040E1F700C000008083CC
:100470002FEF31EE94E0215030409040E1F700C082
:10048000000010822FEF31EE94E021503040904078
:10049000E1F700C0000080832FEF31EE94E021509F
:1004A00030409040E1F700C0000010822FEF31EEA5
:1004B00094E0215030409040E1F700C0000080837C
:1004C0002FEF31EE94E0215030409040E1F700C032
:1004D000000010822FEF31EE94E021503040904028
:1004E000E1F700C0000080832FEF31EE94E021504F
:1004F00030409040E1F700C0000010822FEF31EE55
:1005000094E0215030409040E1F700C0000080832B
:100510002FEF31EE94E0215030409040E1F700C0E1
:10052000000010822FEF31EE94E0215030409040D7
:10053000E1F700C0000080832FEF31EE94E02150FE
:1005400030409040E1F700C0000010822FEF31EE04
:1005500094E0215030409040E1F700C000008083DB
:100560002FEF31EE94E0215030409040E1F700C091
:10057000000010822FEF31EE94E021503040904087
:10058000E1F700C0000080832FEF31EE94E02150AE
:1005900030409040E1F700C0000010822FEF31EEB4
:1005A00094E0215030409040E1F700C0000080838B
:1005B0002FEF31EE94E0215030409040E1F700C041
:1005C000000010822FEF31EE94E021503040904037
:1005D000E1F700C0000080832FEF31EE94E021505E
:1005E00030409040E1F700C0000010822FEF31EE64
:1005F00094E0215030409040E1F700C0000080833B
:100600002FEF31EE94E0215030409040E1F700C0F0
:10061000000010822FEF31EE94E0215030409040E6
:10062000E1F700C0000080832FEF31EE94E021500D
:1006300030409040E1F700C0000010822FEF31EE13
:1006400094E0215030409040E1F700C000008083EA
:100650002FEF31EE94E0215030409040E1F700C0A0
:10066000000010822FEF31EE94E021503040904096
:10067000E1F700C0000080832FEF31EE94E02150BD
:1006800030409040E1F700C0000010822FEF31EEC3
:1006900094E0215030409040E1F700C0000080839A
:1006A0002FEF31EE94E0215030409040E1F700C050
:1006B000000010822FEF31EE94E021503040904046
:1006C000E1F700C0000080832FEF31EE94E021506D
:1006D00030409040E1F700C0000010822FEF31EE73
:1006E00094E0215030409040E1F700C0000080834A
:1006F0002FEF31EE94E0215030409040E1F700C000
:10070000000010822FEF31EE94E0215030409040F5
:10071000E1F700C0000080832FEF31EE94E021501C
:1007200030409040E1F700C0000010822FEF31EE22
:1007300094E0215030409040E1F700C000008083F9
:100740002FEF31EE94E0215030409040E1F700C0AF
:10075000000010822FEF31EE94E0215030409040A5
:10076000E1F700C0000080832FEF31EE94E02150CC
:1007700030409040E1F700C0000010822FEF31EED2
:1007800094E0215030409040E1F700C000008083A9
:100790002FEF31EE94E0215030409040E1F700C05F
:1007A000000010822FEF31EE94E021503040904055
:1007B000E1F700C0000080832FEF31EE94E021507C
:1007C00030409040E1F700C0000010822FEF31EE82
:1007D00094E0215030409040E1F700C00000808359
:1007E0002FEF31EE94E0215030409040E1F700C00F
:1007F000000010822FEF31EE94E021503040904005
:10080000E1F700C0000080832FEF31EE94E021502B
:1008100030409040E1F700C0000010822FEF31EE31
:1008200094E0215030409040E1F700C00000808308
:100830002FEF31EE94E0215030409040E1F700C0BE
:10084000000010822FEF31EE94E0215030409040B4
:10085000E1F700C0000080832FEF31EE94E02150DB
:1008600030409040E1F700C0000010822FEF31EEE1
:1008700094E0215030409040E1F700C000008083B8
:100880002FEF31EE94E0215030409040E1F700C06E
:10089000000010822FEF31EE94E021503040904064
:1008A000E1F700C0000080832FEF31EE94E021508B
:1008B00030409040E1F700C0000010822FEF31EE91
:1008C00094E0215030409040E1F700C00000808368
:1008D0002FEF31EE94E0215030409040E1F700C01E
:1008E000000010822FEF31EE94E021503040904014
:1008F000E1F700C0000080832FEF31EE94E021503B
:1009000030409040E1F700C0000010822FEF31EE40
:1009100094E0215030409040E1F700C00000808317
:100920002FEF31EE94E0215030409040E1F700C0CD
:10093000000010822FEF31EE94E0215030409040C3
:10094000E1F700C0000080832FEF31EE94E02150EA
:1009500030409040E1F700C0000010822FEF31EEF0
:1009600094E0215030409040E1F700C000008083C7
:100970002FEF31EE94E0215030409040E1F700C07D
:10098000000010822FEF31EE94E021503040904073
:10099000E1F700C0000080832FEF31EE94E021509A
:1009A00030409040E1F700C0000010822FEF31EEA0
:1009B00094E0215030409040E1F700C00000808377
:1009C0002FEF31EE94E0215030409040E1F700C02D
:1009D000000010822FEF31EE94E021503040904023
:1009E000E1F700C0000080832FEF31EE94E021504A
:1009F00030409040E1F700C0000010822FEF31EE50
:100A000094E0215030409040E1F700C00000808326
:100A10002FEF31EE94E0215030409040E1F700C0DC
:100A2000000010822FEF31EE94E0215030409040D2
:100A3000E1F700C0000080832FEF31EE94E02150F9
:100A400030409040E1F700C0000010822FEF31EEFF
:100A500094E0215030409040E1F700C000008083D6
:100A60002FEF31EE94E0215030409040E1F700C08C
:100A7000000010822FEF31EE94E021503040904082
:100A8000E1F700C0000080832FEF31EE94E02150A9
:100A900030409040E1F700C0000010822FEF31EEAF
:100AA00094E0215030409040E1F700C00000808386
:100AB0002FEF31EE94E0215030409040E1F700C03C
:100AC000000010822FEF31EE94E021503040904032
:100AD000E1F700C0000080832FEF31EE94E0215059
:100AE00030409040E1F700C0000010822FEF31EE5F
:100AF00094E0215030409040E1F700C00000808336
:100B00002FEF31EE94E0215030409040E1F700C0EB
:100B1000000010822FEF31EE94E0215030409040E1
:100B2000E1F700C0000080832FEF31EE94E0215008
:100B300030409040E1F700C0000010822FEF31EE0E
:100B400094E0215030409040E1F700C000008083E5
:100B50002FEF31EE94E0215030409040E1F700C09B
:100B6000000010822FEF31EE94E021503040904091
:100B7000E1F700C0000080832FEF31EE94E02150B8
:100B800030409040E1F700C0000010822FEF31EEBE
:100B900094E0215030409040E1F700C00000808395
:100BA0002FEF31EE94E0215030409040E1F700C04B
:100BB000000010822FEF31EE94E021503040904041
:100BC000E1F700C0000080832FEF31EE94E0215068
:100BD00030409040E1F700C0000010822FEF31EE6E
:100BE00094E0215030409040E1F700C00000808345
:100BF0002FEF31EE94E0215030409040E1F700C0FB
:100C0000000010822FEF31EE94E0215030409040F0
:100C1000E1F700C0000080832FEF31EE94E0215017
:100C200030409040E1F700C0000010822FEF31EE1D
:100C300094E0215030409040E1F700C000008083F4
:100C40002FEF31EE94E0215030409040E1F700C0AA
:100C5000000010822FEF31EE94E0215030409040A0
:100C6000E1F700C0000080832FEF31EE94E02150C7
:100C700030409040E1F700C0000010822FEF31EECD
:100C800094E0215030409040E1F700C000008083A4
:100C90002FEF31EE94E0215030409040E1F700C05A
:100CA000000010822FEF31EE94E021503040904050
:100CB000E1F700C0000080832FEF31EE94E0215077
:100CC00030409040E1F700C0000010822FEF31EE7D
:100CD00094E0215030409040E1F700C00000808354
:100CE0002FEF31EE94E0215030409040E1F700C00A
:100CF000000010822FEF31EE94E021503040904000
:100D0000E1F700C0000080832FEF31EE94E0215026
:100D100030409040E1F700C0000010822FEF31EE2C
:100D200094E0215030409040E1F700C00000808303
:100D30002FEF31EE94E0215030409040E1F700C0B9
:100D4000000010822FEF31EE94E0215030409040AF
:100D5000E1F700C0000080832FEF31EE94E02150D6
:100D600030409040E1F700C0000010822FEF31EEDC
:100D700094E0215030409040E1F700C000008083B3
:100D80002FEF31EE94E0215030409040E1F700C069
:100D9000000010822FEF31EE94E02150304090405F
:100DA000E1F700C0000080832FEF31EE94E0215086
:100DB00030409040E1F700C0000010822FEF31EE8C
:100DC00094E0215030409040E1F700C00000808363
:100DD0002FEF31EE94E0215030409040E1F700C019
:100DE000000010822FEF31EE94E02150304090400F
:100DF000E1F700C0000080832FEF31EE94E0215036
:100E000030409040E1F700C0000010822FEF31EE3B
:100E100094E0215030409040E1F700C00000808312
:100E20002FEF31EE94E0215030409040E1F700C0C8
:100E3000000010822FEF31EE94E0215030409040BE
:100E4000E1F700C0000080832FEF31EE94E02150E5
:100E500030409040E1F700C0000010822FEF31EEEB
:100E600094E0215030409040E1F700C000008083C2
:100E70002FEF31EE94E0215030409040E1F700C078
:100E8000000010822FEF31EE94E02150304090406E
:100E9000E1F700C0000080832FEF31EE94E0215095
:100EA00030409040E1F700C0000010822FEF31EE9B
:100EB00094E0215030409040E1F700C00000808372
:100EC0002FEF31EE94E0215030409040E1F700C028
:100ED000000010822FEF31EE94E02150304090401E
:100EE000E1F700C0000080832FEF31EE94E0215045
:100EF00030409040E1F700C0000010822FEF31EE4B
:100F000094E0215030409040E1F700C00000108292
:100F10002FEF31EE94E0215030409040E1F700C0D7
:100F2000000080832FEF31EE94E02150304090405C
:100F3000E1F700C0000010822FEF31EE94E0215065
:100F400030409040E1F700C0000080832FEF31EE89
:100F500094E0215030409040E1F700C00000108242
:100F60002FEF31EE94E0215030409040E1F700C087
:100F7000000080832FEF31EE94E02150304090400C
:100F8000E1F700C0000010822FEF31EE94E0215015
:100F900030409040E1F700C0000080832FEF31EE39
:100FA00094E0215030409040E1F700C000001082F2
:100FB0002FEF31EE94E0215030409040E1F700C037
:100FC000000080832FEF31EE94E0215030409040BC
:100FD000E1F700C0000010822FEF31EE94E02150C5
:100FE00030409040E1F700C0000080832FEF31EEE9
:100FF00094E0215030409040E1F700C000001082A2
:101000002FEF31EE94E0215030409040E1F700C0E6
:10101000000080832FEF31EE94E02150304090406B
:10102000E1F700C0000010822FEF31EE94E0215074
:1010300030409040E1F700C0000080832FEF31EE98
:1010400094E0215030409040E1F700C00000108251
:101050002FEF31EE94E0215030409040E1F700C096
:10106000000080832FEF31EE94E02150304090401B
:10107000E1F700C0000010822FEF31EE94E0215024
:1010800030409040E1F700C0000080832FEF31EE48
:1010900094E0215030409040E1F700C00000108201
:1010A0002FEF31EE94E0215030409040E1F700C046
:1010B000000080832FEF31EE94E0215030409040CB
:1010C000E1F700C0000010822FEF31EE94E02150D4
:1010D00030409040E1F700C0000080832FEF31EEF8
:1010E00094E0215030409040E1F700C000001082B1
:1010F0002FEF31EE94E0215030409040E1F700C0F6
:10110000000080832FEF31EE94E02150304090407A
:10111000E1F700C0000010822FEF31EE94E0215083
:1011200030409040E1F700C0000080832FEF31EEA7
:1011300094E0215030409040E1F700C00000108260
:101140002FEF31EE94E0215030409040E1F700C0A5
:10115000000080832FEF31EE94E02150304090402A
:10116000E1F700C0000010822FEF31EE94E0215033
:1011700030409040E1F700C0000080832FEF31EE57
:1011800094E0215030409040E1F700C00000108210
:101190002FEF31EE94E0215030409040E1F700C055
:1011A000000080832FEF31EE94E0215030409040DA
:1011B000E1F700C0000010822FEF31EE94E02150E3
:1011C00030409040E1F700C0000080832FEF31EE07
:1011D00094E0215030409040E1F700C000001082C0
:1011E0002FEF31EE94E0215030409040E1F700C005
:1011F000000080832FEF31EE94E02150304090408A
:10120000E1F700C0000010822FEF31EE94E0215092
:1012100030409040E1F700C0000080832FEF31EEB6
:1012200094E0215030409040E1F700C0000010826F
:101230002FEF31EE94E0215030409040E1F700C0B4
:10124000000080832FEF31EE94E021503040904039
:10125000E1F700C0000010822FEF31EE94E0215042
:1012600030409040E1F700C0000080832FEF31EE66
:1012700094E0215030409040E1F700C0000010821F
:101280002FEF31EE94E0215030409040E1F700C064
:10129000000080832FEF31EE94E0215030409040E9
:1012A000E1F700C0000010822FEF31EE94E02150F2
:1012B00030409040E1F700C0000080832FEF31EE16
:1012C00094E0215030409040E1F700C000001082CF
:1012D0002FEF31EE94E0215030409040E1F700C014
:1012E000000080832FEF31EE94E021503040904099
:1012F000E1F700C0000010822FEF31EE94E02150A2
:1013000030409040E1F700C0000080832FEF31EEC5
:1013100094E0215030409040E1F700C0000010827E
:101320002FEF31EE94E0215030409040E1F700C0C3
:10133000000080832FEF31EE94E021503040904048
:10134000E1F700C0000010822FEF31EE94E0215051
:1013500030409040E1F700C0000080832FEF31EE75
:1013600094E0215030409040E1F700C0000010822E
:101370002FEF31EE94E0215030409040E1F700C073
:10138000000080832FEF31EE94E0215030409040F8
:10139000E1F700C0000010822FEF31EE94E0215001
:1013A00030409040E1F700C0000080832FEF31EE25
:1013B00094E0215030409040E1F700C000001082DE
:1013C0002FEF31EE94E0215030409040E1F700C023
:1013D000000080832FEF31EE94E0215030409040A8
:1013E000E1F700C0000010822FEF31EE94E02150B1
:1013F00030409040E1F700C0000080832FEF31EED5
:1014000094E0215030409040E1F700C0000010828D
:101410002FEF31EE94E0215030409040E1F700C0D2
:10142000000080832FEF31EE94E021503040904057
:10143000E1F700C0000010822FEF31EE94E0215060
:1014400030409040E1F700C0000080832FEF31EE84
:1014500094E0215030409040E1F700C0000010823D
:101460002FEF31EE94E0215030409040E1F700C082
:10147000000080832FEF31EE94E021503040904007
:10148000E1F700C0000010822FEF31EE94E0215010
:1014900030409040E1F700C0000080832FEF31EE34
:1014A00094E0215030409040E1F700C000001082ED
:1014B0002FEF31EE94E0215030409040E1F700C032
:1014C000000080832FEF31EE94E0215030409040B7
:1014D000E1F700C0000010822FEF31EE94E02150C0
:1014E00030409040E1F700C0000080832FEF31EEE4
:1014F00094E0215030409040E1F700C0000010829D
:101500002FEF31EE94E0215030409040E1F700C0E1
:10151000000080832FEF31EE94E021503040904066
:10152000E1F700C0000010822FEF31EE94E021506F
:1015300030409040E1F700C0000080832FEF31EE93
:1015400094E0215030409040E1F700C0000010824C
:101550002FEF31EE94E0215030409040E1F700C091
:10156000000080832FEF31EE94E021503040904016
:10157000E1F700C0000010822FEF31EE94E021501F
:1015800030409040E1F700C0000080832FEF31EE43
:1015900094E0215030409040E1F700C000001082FC
:1015A0002FEF31EE94E0215030409040E1F700C041
:1015B000000080832FEF31EE94E0215030409040C6
:1015C000E1F700C0000010822FEF31EE94E02150CF
:1015D00030409040E1F700C0000080832FEF31EEF3
:1015E00094E0215030409040E1F700C000001082AC
:1015F0002FEF31EE94E0215030409040E1F700C0F1
:10160000000080832FEF31EE94E021503040904075
:10161000E1F700C0000010822FEF31EE94E021507E
:1016200030409040E1F700C0000080832FEF31EEA2
:1016300094E0215030409040E1F700C0000010825B
:101640002FEF31EE94E0215030409040E1F700C0A0
:10165000000080832FEF31EE94E021503040904025
:10166000E1F700C0000010822FEF31EE94E021502E
:1016700030409040E1F700C0000080832FEF31EE52
:1016800094E0215030409040E1F700C0000010820B
:101690002FEF31EE94E0215030409040E1F700C050
:1016A000000080832FEF31EE94E0215030409040D5
:1016B000E1F700C0000010822FEF31EE94E02150DE
:1016C00030409040E1F700C0000080832FEF31EE02
:1016D00094E0215030409040E1F700C000001082BB
:1016E0002FEF31EE94E0215030409040E1F700C000
:1016F000000080832FEF31EE94E021503040904085
:10170000E1F700C0000010822FEF31EE94E021508D
:1017100030409040E1F700C0000080832FEF31EEB1
:1017200094E0215030409040E1F700C0000010826A
:101730002FEF31EE94E0215030409040E1F700C0AF
:10174000000080832FEF31EE94E021503040904034
:10175000E1F700C0000010822FEF31EE94E021503D
:1017600030409040E1F700C0000080832FEF31EE61
:1017700094E0215030409040E1F700C0000010821A
:101780002FEF31EE94E0215030409040E1F700C05F
:10179000000080832FEF31EE94E0215030409040E4
:1017A000E1F700C0000010822FEF31EE94E02150ED
:1017B00030409040E1F700C0000080832FEF31EE11
:1017C00094E0215030409040E1F700C000001082CA
:1017D0002FEF31EE94E0215030409040E1F700C00F
:1017E000000080832FEF31EE94E021503040904094
:1017F000E1F700C0000010822FEF31EE94E021509D
:1018000030409040E1F700C0000080832FEF31EEC0
:1018100094E0215030409040E1F700C00000108279
:101820002FEF31EE94E0215030409040E1F700C0BE
:10183000000080832FEF31EE94E021503040904043
:10184000E1F700C0000010822FEF31EE94E021504C
:1018500030409040E1F700C0000080832FEF31EE70
:1018600094E0215030409040E1F700C00000108229
:101870002FEF31EE94E0215030409040E1F700C06E
:10188000000080832FEF31EE94E0215030409040F3
:10189000E1F700C0000010822FEF31EE94E02150FC
:1018A00030409040E1F700C0000080832FEF31EE20
:1018B00094E0215030409040E1F700C000001082D9
:1018C0002FEF31EE94E0215030409040E1F700C01E
:1018D000000080832FEF31EE94E0215030409040A3
:1018E000E1F700C0000010822FEF31EE94E02150AC
:1018F00030409040E1F700C0000080832FEF31EED0
:1019000094E0215030409040E1F700C00000108288
:101910002FEF31EE94E0215030409040E1F700C0CD
:10192000000080832FEF31EE94E021503040904052
:10193000E1F700C0000010822FEF31EE94E021505B
:1019400030409040E1F700C0000080832FEF31EE7F
:1019500094E0215030409040E1F700C00000108238
:101960002FEF31EE94E0215030409040E1F700C07D
:10197000000080832FEF31EE94E021503040904002
:10198000E1F700C0000010822FEF31EE94E021500B
:1019900030409040E1F700C0000080832FEF31EE2F
:1019A00094E0215030409040E1F700C000001082E8
:1019B0002FEF31EE94E0215030409040E1F700C02D
:1019C000000080832FEF31EE94E0215030409040B2
:1019D000E1F700C0000010822FEF31EE94E02150BB
:1019E00030409040E1F700C0000080832FEF31EEDF
:1019F00094E0215030409040E1F700C00000108298
:101A00002FEF31EE94E0215030409040E1F700C0DC
:101A1000000080832FEF31EE94E021503040904061
:101A2000E1F700C0000010822FEF31EE94E021506A
:101A300030409040E1F700C0000080832FEF31EE8E
:101A400094E0215030409040E1F700C00000108247
:101A50002FEF31EE94E0215030409040E1F700C08C
:101A6000000080832FEF31EE94E021503040904011
:101A7000E1F700C0000010822FEF31EE94E021501A
:101A800030409040E1F700C0000080832FEF31EE3E
:101A900094E0215030409040E1F700C000001082F7
:101AA0002FEF31EE94E0215030409040E1F700C03C
:101AB000000080832FEF31EE94E0215030409040C1
:101AC000E1F700C0000010822FEF31EE94E02150CA
:101AD00030409040E1F700C0000080832FEF31EEEE
:101AE00094E0215030409040E1F700C000001082A7
:101AF0002FEF31EE94E0215030409040E1F700C0EC
:101B0000000080832FEF31EE94E021503040904070
:101B1000E1F700C0000010822FEF31EE94E0215079
:101B200030409040E1F700C0000080832FEF31EE9D
:101B300094E0215030409040E1F700C00000108256
:101B40002FEF31EE94E0215030409040E1F700C09B
:101B5000000080832FEF31EE94E021503040904020
:101B6000E1F700C0000010822FEF31EE94E0215029
:101B700030409040E1F700C0000080832FEF31EE4D
:101B800094E0215030409040E1F700C00000108206
:101B90002FEF31EE94E0215030409040E1F700C04B
:101BA000000080832FEF31EE94E0215030409040D0
:101BB000E1F700C0000010822FEF31EE94E02150D9
:101BC00030409040E1F700C0000080832FEF31EEFD
:101BD00094E0215030409040E1F700C000001082B6
:101BE0002FEF31EE94E0215030409040E1F700C0FB
:101BF000000080832FEF31EE94E021503040904080
:101C0000E1F700C0000010822FEF31EE94E0215088
:101C100030409040E1F700C0000080832FEF31EEAC
:101C200094E0215030409040E1F700C00000108265
:101C30002FEF31EE94E0215030409040E1F700C0AA
:101C4000000080832FEF31EE94E02150304090402F
:101C5000E1F700C0000010822FEF31EE94E0215038
:101C600030409040E1F700C0000080832FEF31EE5C
:101C700094E0215030409040E1F700C00000108215
:101C80002FEF31EE94E0215030409040E1F700C05A
:101C9000000080832FEF31EE94E0215030409040DF
:101CA000E1F700C0000010822FEF31EE94E02150E8
:101CB00030409040E1F700C0000080832FEF31EE0C
:101CC00094E0215030409040E1F700C000001082C5
:101CD0002FEF31EE94E0215030409040E1F700C00A
:101CE000000080832FEF31EE94E02150304090408F
:101CF000E1F700C0000010822FEF31EE94E0215098
:101D000030409040E1F700C0000080832FEF31EEBB
:101D100094E0215030409040E1F700C00000108274
:101D20002FEF31EE94E0215030409040E1F700C0B9
:101D3000000080832FEF31EE94E02150304090403E
:101D4000E1F700C0000010822FEF31EE94E0215047
:101D500030409040E1F700C0000010822FEF31EEDC
:101D600094E0215030409040E1F700C000008083B3
:101D70002FEF31EE94E0215030409040E1F700C069
:101D8000000010822FEF31EE94E02150304090405F
:101D9000E1F700C0000080832FEF31EE94E0215086
:101DA00030409040E1F700C0000010822FEF31EE8C
:101DB00094E0215030409040E1F700C00000808363
:101DC0002FEF31EE94E0215030409040E1F700C019
:101DD000000010822FEF31EE94E02150304090400F
:101DE000E1F700C0000080832FEF31EE94E0215036
:101DF00030409040E1F700C0000010822FEF31EE3C
:101E000094E0215030409040E1F700C00000808312
:101E10002FEF31EE94E0215030409040E1F700C0C8
:101E2000000010822FEF31EE94E0215030409040BE
:101E3000E1F700C0000080832FEF31EE94E02150E5
:101E400030409040E1F700C0000010822FEF31EEEB
:101E500094E0215030409040E1F700C000008083C2
:101E60002FEF31EE94E0215030409040E1F700C078
:101E7000000010822FEF31EE94E02150304090406E
:101E8000E1F700C0000080832FEF31EE94E0215095
:101E900030409040E1F700C0000010822FEF31EE9B
:101EA00094E0215030409040E1F700C00000808372
:101EB0002FEF31EE94E0215030409040E1F700C028
:101EC000000010822FEF31EE94E02150304090401E
:101ED000E1F700C0000080832FEF31EE94E0215045
:101EE00030409040E1F700C0000010822FEF31EE4B
:101EF00094E0215030409040E1F700C00000808322
:101F00002FEF31EE94E0215030409040E1F700C0D7
:101F1000000010822FEF31EE94E0215030409040CD
:101F2000E1F700C0000080832FEF31EE94E02150F4
:101F300030409040E1F700C0000010822FEF31EEFA
:101F400094E0215030409040E1F700C000008083D1
:101F50002FEF31EE94E0215030409040E1F700C087
:101F6000000010822FEF31EE94E02150304090407D
:101F7000E1F700C0000080832FEF31EE94E02150A4
:101F800030409040E1F700C0000010822FEF31EEAA
:101F900094E0215030409040E1F700C00000808381
:101FA0002FEF31EE94E0215030409040E1F700C037
:101FB000000010822FEF31EE94E02150304090402D
:101FC000E1F700C0000080832FEF31EE94E0215054
:101FD00030409040E1F700C0000010822FEF31EE5A
:101FE00094E0215030409040E1F700C00000808331
:101FF0002FEF31EE94E0215030409040E1F700C0E7
:10200000000010822FEF31EE94E0215030409040DC
:10201000E1F700C0000080832FEF31EE94E0215003
:1020200030409040E1F700C0000010822FEF31EE09
:1020300094E0215030409040E1F700C000008083E0
:102040002FEF31EE94E0215030409040E1F700C096
:10205000000010822FEF31EE94E02150304090408C
:10206000E1F700C0000080832FEF31EE94E02150B3
:1020700030409040E1F700C0000010822FEF31EEB9
:1020800094E0215030409040E1F700C00000808390
:102090002FEF31EE94E0215030409040E1F700C046
:1020A000000010822FEF31EE94E02150304090403C
:1020B000E1F700C0000080832FEF31EE94E0215063
:1020C00030409040E1F700C0000010822FEF31EE69
:1020D00094E0215030409040E1F700C00000808340
:1020E0002FEF31EE94E0215030409040E1F700C0F6
:1020F000000010822FEF31EE94E0215030409040EC
:10210000E1F700C0000080832FEF31EE94E0215012
:1021100030409040E1F700C0000010822FEF31EE18
:1021200094E0215030409040E1F700C000008083EF
:102130002FEF31EE94E0215030409040E1F700C0A5
:10214000000010822FEF31EE94E02150304090409B
:10215000E1F700C0000080832FEF31EE94E02150C2
:1021600030409040E1F700C0000010822FEF31EEC8
:1021700094E0215030409040E1F700C0000080839F
:102180002FEF31EE94E0215030409040E1F700C055
:10219000000010822FEF31EE94E02150304090404B
:1021A000E1F700C0000080832FEF31EE94E0215072
:1021B00030409040E1F700C0000010822FEF31EE78
:1021C00094E0215030409040E1F700C0000080834F
:1021D0002FEF31EE94E0215030409040E1F700C005
:1021E000000010822FEF31EE94E0215030409040FB
:1021F000E1F700C0000080832FEF31EE94E0215022
:1022000030409040E1F700C0000010822FEF31EE27
:1022100094E0215030409040E1F700C000008083FE
:102220002FEF31EE94E0215030409040E1F700C0B4
:10223000000010822FEF31EE94E0215030409040AA
:10224000E1F700C0000080832FEF31EE94E02150D1
:1022500030409040E1F700C0000010822FEF31EED7
:1022600094E0215030409040E1F700C000008083AE
:102270002FEF31EE94E0215030409040E1F700C064
:10228000000010822FEF31EE94E02150304090405A
:10229000E1F700C0000080832FEF31EE94E0215081
:1022A00030409040E1F700C0000010822FEF31EE87
:1022B00094E0215030409040E1F700C0000080835E
:1022C0002FEF31EE94E0215030409040E1F700C014
:1022D000000010822FEF31EE94E02150304090400A
:1022E000E1F700C0000080832FEF31EE94E0215031
:1022F00030409040E1F700C0000010822FEF31EE37
:1023000094E0215030409040E1F700C0000080830D
:102310002FEF31EE94E0215030409040E1F700C0C3
:10232000000010822FEF31EE94E0215030409040B9
:10233000E1F700C0000080832FEF31EE94E02150E0
:1023400030409040E1F700C0000010822FEF31EEE6
:1023500094E0215030409040E1F700C000008083BD
:102360002FEF31EE94E0215030409040E1F700C073
:10237000000010822FEF31EE94E021503040904069
:10238000E1F700C0000080832FEF31EE94E0215090
:1023900030409040E1F700C0000010822FEF31EE96
:1023A00094E0215030409040E1F700C0000080836D
:1023B0002FEF31EE94E0215030409040E1F700C023
:1023C000000010822FEF31EE94E021503040904019
:1023D000E1F700C0000080832FEF31EE94E0215040
:1023E00030409040E1F700C0000010822FEF31EE46
:1023F00094E0215030409040E1F700C0000080831D
:102400002FEF31EE94E0215030409040E1F700C0D2
:10241000000010822FEF31EE94E0215030409040C8
:10242000E1F700C0000080832FEF31EE94E02150EF
:1024300030409040E1F700C0000010822FEF31EEF5
:1024400094E0215030409040E1F700C000008083CC
:102450002FEF31EE94E0215030409040E1F700C082
:10246000000010822FEF31EE94E021503040904078
:10247000E1F700C0000080832FEF31EE94E021509F
:1024800030409040E1F700C0000010822FEF31EEA5
:1024900094E0215030409040E1F700C0000080837C
:1024A0002FEF31EE94E0215030409040E1F700C032
:1024B000000010822FEF31EE94E021503040904028
:1024C000E1F700C0000080832FEF31EE94E021504F
:1024D00030409040E1F700C0000010822FEF31EE55
:1024E00094E0215030409040E1F700C0000080832C
:1024F0002FEF31EE94E0215030409040E1F700C0E2
:10250000000010822FEF31EE94E0215030409040D7
:10251000E1F700C0000080832FEF31EE94E02150FE
:1025200030409040E1F700C0000010822FEF31EE04
:1025300094E0215030409040E1F700C000008083DB
:102540002FEF31EE94E0215030409040E1F700C091
:10255000000010822FEF31EE94E021503040904087
:10256000E1F700C0000080832FEF31EE94E02150AE
:1025700030409040E1F700C0000010822FEF31EEB4
:1025800094E0215030409040E1F700C0000080838B
:102590002FEF31EE94E0215030409040E1F700C041
:1025A000000010822FEF31EE94E021503040904037
:1025B000E1F700C0000080832FEF31EE94E021505E
:1025C00030409040E1F700C0000010822FEF31EE64
:1025D00094E0215030409040E1F700C0000080833B
:1025E0002FEF31EE94E0215030409040E1F700C0F1
:1025F000000010822FEF31EE94E0215030409040E7
:10260000E1F700C0000080832FEF31EE94E021500D
:1026100030409040E1F700C0000010822FEF31EE13
:1026200094E0215030409040E1F700C000008083EA
:102630002FEF31EE94E0215030409040E1F700C0A0
:10264000000010822FEF31EE94E021503040904096
:10265000E1F700C0000080832FEF31EE94E02150BD
:1026600030409040E1F700C0000010822FEF31EEC3
:1026700094E0215030409040E1F700C0000080839A
:102680002FEF31EE94E0215030409040E1F700C050
:10269000000010822FEF31EE94E021503040904046
:1026A000E1F700C0000080832FEF31EE94E021506D
:1026B00030409040E1F700C0000010822FEF31EE73
:1026C00094E0215030409040E1F700C0000080834A
:1026D0002FEF31EE94E0215030409040E1F700C000
:1026E000000010822FEF31EE94E0215030409040F6
:1026F000E1F700C0000080832FEF31EE94E021501D
:1027000030409040E1F700C0000010822FEF31EE22
:1027100094E0215030409040E1F700C000008083F9
:102720002FEF31EE94E0215030409040E1F700C0AF
:10273000000010822FEF31EE94E0215030409040A5
:10274000E1F700C0000080832FEF31EE94E02150CC
:1027500030409040E1F700C0000010822FEF31EED2
:1027600094E0215030409040E1F700C000008083A9
:102770002FEF31EE94E0215030409040E1F700C05F
:10278000000010822FEF31EE94E021503040904055
:10279000E1F700C0000080832FEF31EE94E021507C
:1027A00030409040E1F700C0000010822FEF31EE82
:1027B00094E0215030409040E1F700C00000808359
:1027C0002FEF31EE94E0215030409040E1F700C00F
:1027D000000010822FEF31EE94E021503040904005
:1027E000E1F700C0000080832FEF31EE94E021502C
:1027F00030409040E1F700C0000010822FEF31EE32
:1028000094E0215030409040E1F700C00000808308
:102810002FEF31EE94E0215030409040E1F700C0BE
:10282000000010822FEF31EE94E0215030409040B4
:10283000E1F700C0000080832FEF31EE94E02150DB
:1028400030409040E1F700C0000010822FEF31EEE1
:1028500094E0215030409040E1F700C000008083B8
:102860002FEF31EE94E0215030409040E1F700C06E
:10287000000010822FEF31EE94E021503040904064
:10288000E1F700C0000080832FEF31EE94E021508B
:1028900030409040E1F700C0000010822FEF31EE91
:1028A00094E0215030409040E1F700C00000808368
:1028B0002FEF31EE94E0215030409040E1F700C01E
:1028C000000010822FEF31EE94E021503040904014
:1028D000E1F700C0000080832FEF31EE94E021503B
:1028E00030409040E1F700C0000010822FEF31EE41
:1028F00094E0215030409040E1F700C00000808318
:102900002FEF31EE94E0215030409040E1F700C0CD
:10291000000010822FEF31EE94E0215030409040C3
:10292000E1F700C0000080832FEF31EE94E02150EA
:1029300030409040E1F700C0000010822FEF31EEF0
:1029400094E0215030409040E1F700C000008083C7
:102950002FEF31EE94E0215030409040E1F700C07D
:10296000000010822FEF31EE94E021503040904073
:10297000E1F700C0000080832FEF31EE94E021509A
:1029800030409040E1F700C0000010822FEF31EEA0
:1029900094E0215030409040E1F700C00000808377
:1029A0002FEF31EE94E0215030409040E1F700C02D
:1029B000000010822FEF31EE94E021503040904023
:1029C000E1F700C0000080832FEF31EE94E021504A
:1029D00030409040E1F700C0000010822FEF31EE50
:1029E00094E0215030409040E1F700C00000808327
:1029F0002FEF31EE94E0215030409040E1F700C0DD
:102A0000000010822FEF31EE94E0215030409040D2
:102A1000E1F700C0000080832FEF31EE94E02150F9
:102A200030409040E1F700C0000010822FEF31EEFF
:102A300094E0215030409040E1F700C000008083D6
:102A40002FEF31EE94E0215030409040E1F700C08C
:102A5000000010822FEF31EE94E021503040904082
:102A6000E1F700C0000080832FEF31EE94E02150A9
:102A700030409040E1F700C0000010822FEF31EEAF
:102A800094E0215030409040E1F700C00000808386
:102A90002FEF31EE94E0215030409040E1F700C03C
:102AA000000010822FEF31EE94E021503040904032
:102AB000E1F700C0000080832FEF31EE94E0215059
:102AC00030409040E1F700C0000010822FEF31EE5F
:102AD00094E0215030409040E1F700C00000808336
:102AE0002FEF31EE94E0215030409040E1F700C0EC
:102AF000000010822FEF31EE94E0215030409040E2
:102B0000E1F700C0000080832FEF31EE94E0215008
:102B100030409040E1F700C0000010822FEF31EE0E
:102B200094E0215030409040E1F700C000008083E5
:102B30002FEF31EE94E0215030409040E1F700C09B
:102B4000000010822FEF31EE94E021503040904091
:102B5000E1F700C0000080832FEF31EE94E02150B8
:102B600030409040E1F700C0000010822FEF31EEBE
:102B700094E0215030409040E1F700C00000808395
:102B80002FEF31EE94E0215030409040E1F700C04B
:102B9000000010822FEF31EE94E021503040904041
:102BA000E1F700C0000010822FEF31EE94E02150D9
:102BB00030409040E1F700C0000080832FEF31EEFD
:102BC00094E0215030409040E1F700C000001082B6
:102BD0002FEF31EE94E0215030409040E1F700C0FB
:102BE000000080832FEF31EE94E021503040904080
:102BF000E1F700C0000010822FEF31EE94E0215089
:102C000030409040E1F700C0000080832FEF31EEAC
:102C100094E0215030409040E1F700C00000108265
:102C20002FEF31EE94E0215030409040E1F700C0AA
:102C3000000080832FEF31EE94E02150304090402F
:102C4000E1F700C0000010822FEF31EE94E0215038
:102C500030409040E1F700C0000080832FEF31EE5C
:102C600094E0215030409040E1F700C00000108215
:102C70002FEF31EE94E0215030409040E1F700C05A
:102C8000000080832FEF31EE94E0215030409040DF
:102C9000E1F700C0000010822FEF31EE94E02150E8
:102CA00030409040E1F700C0000080832FEF31EE0C
:102CB00094E0215030409040E1F700C000001082C5
:102CC0002FEF31EE94E0215030409040E1F700C00A
:102CD000000080832FEF31EE94E02150304090408F
:102CE000E1F700C0000010822FEF31EE94E0215098
:102CF00030409040E1F700C0000080832FEF31EEBC
:102D000094E0215030409040E1F700C00000108274
:102D10002FEF31EE94E0215030409040E1F700C0B9
:102D2000000080832FEF31EE94E02150304090403E
:102D3000E1F700C0000010822FEF31EE94E0215047
:102D400030409040E1F700C0000080832FEF31EE6B
:102D500094E0215030409040E1F700C00000108224
:102D60002FEF31EE94E0215030409040E1F700C069
:102D7000000080832FEF31EE94E0215030409040EE
:102D8000E1F700C0000010822FEF31EE94E02150F7
:102D900030409040E1F700C0000080832FEF31EE1B
:102DA00094E0215030409040E1F700C000001082D4
:102DB0002FEF31EE94E0215030409040E1F700C019
:102DC000000080832FEF31EE94E02150304090409E
:102DD000E1F700C0000010822FEF31EE94E02150A7
:102DE00030409040E1F700C0000080832FEF31EECB
:102DF00094E0215030409040E1F700C00000108284
:102E00002FEF31EE94E0215030409040E1F700C0C8
:102E1000000080832FEF31EE94E02150304090404D
:102E2000E1F700C0000010822FEF31EE94E0215056
:102E300030409040E1F700C0000080832FEF31EE7A
:102E400094E0215030409040E1F700C00000108233
:102E50002FEF31EE94E0215030409040E1F700C078
:102E6000000080832FEF31EE94E0215030409040FD
:102E7000E1F700C0000010822FEF31EE94E0215006
:102E800030409040E1F700C0000080832FEF31EE2A
:102E900094E0215030409040E1F700C000001082E3
:102EA0002FEF31EE94E0215030409040E1F700C028
:102EB000000080832FEF31EE94E0215030409040AD
:102EC000E1F700C0000010822FEF31EE94E02150B6
:102ED00030409040E1F700C0000080832FEF31EEDA
:102EE00094E0215030409040E1F700C00000108293
:102EF0002FEF31EE94E0215030409040E1F700C0D8
:102F0000000080832FEF31EE94E02150304090405C
:102F1000E1F700C0000010822FEF31EE94E0215065
:102F200030409040E1F700C0000080832FEF31EE89
:102F300094E0215030409040E1F700C00000108242
:102F40002FEF31EE94E0215030409040E1F700C087
:102F5000000080832FEF31EE94E02150304090400C
:102F6000E1F700C0000010822FEF31EE94E0215015
:102F700030409040E1F700C0000080832FEF31EE39
:102F800094E0215030409040E1F700C000001082F2
:102F90002FEF31EE94E0215030409040E1F700C037
:102FA000000080832FEF31EE94E0215030409040BC
:102FB000E1F700C0000010822FEF31EE94E02150C5
:102FC00030409040E1F700C0000080832FEF31EEE9
:102FD00094E0215030409040E1F700C000001082A2
:102FE0002FEF31EE94E0215030409040E1F700C0E7
:102FF000000080832FEF31EE94E02150304090406C
:10300000E1F700C0000010822FEF31EE94E0215074
:1030100030409040E1F700C0000080832FEF31EE98
:1030200094E0215030409040E1F700C00000108251
:103030002FEF31EE94E0215030409040E1F700C096
:10304000000080832FEF31EE94E02150304090401B
:10305000E1F700C0000010822FEF31EE94E0215024
:1030600030409040E1F700C0000080832FEF31EE48
:1030700094E0215030409040E1F700C00000108201
:103080002FEF31EE94E0215030409040E1F700C046
:10309000000080832FEF31EE94E0215030409040CB
:1030A000E1F700C0000010822FEF31EE94E02150D4
:1030B00030409040E1F700C0000080832FEF31EEF8
:1030C00094E0215030409040E1F700C000001082B1
:1030D0002FEF31EE94E0215030409040E1F700C0F6
:1030E000000080832FEF31EE94E02150304090407B
:1030F000E1F700C0000010822FEF31EE94E0215084
:1031000030409040E1F700C0000080832FEF31EEA7
:1031100094E0215030409040E1F700C00000108260
:103120002FEF31EE94E0215030409040E1F700C0A5
:10313000000080832FEF31EE94E02150304090402A
:10314000E1F700C0000010822FEF31EE94E0215033
:1031500030409040E1F700C0000080832FEF31EE57
:1031600094E0215030409040E1F700C00000108210
:103170002FEF31EE94E0215030409040E1F700C055
:10318000000080832FEF31EE94E0215030409040DA
:10319000E1F700C0000010822FEF31EE94E02150E3
:1031A00030409040E1F700C0000080832FEF31EE07
:1031B00094E0215030409040E1F700C000001082C0
:1031C0002FEF31EE94E0215030409040E1F700C005
:1031D000000080832FEF31EE94E02150304090408A
:1031E000E1F700C0000010822FEF31EE94E0215093
:1031F00030409040E1F700C0000080832FEF31EEB7
:1032000094E0215030409040E1F700C0000010826F
:103210002FEF31EE94E0215030409040E1F700C0B4
:10322000000080832FEF31EE94E021503040904039
:10323000E1F700C0000010822FEF31EE94E0215042
:1032400030409040E1F700C0000080832FEF31EE66
:1032500094E0215030409040E1F700C0000010821F
:103260002FEF31EE94E0215030409040E1F700C064
:10327000000080832FEF31EE94E0215030409040E9
:10328000E1F700C0000010822FEF31EE94E02150F2
:1032900030409040E1F700C0000080832FEF31EE16
:1032A00094E0215030409040E1F700C000001082CF
:1032B0002FEF31EE94E0215030409040E1F700C014
:1032C000000080832FEF31EE94E021503040904099
:1032D000E1F700C0000010822FEF31EE94E02150A2
:1032E00030409040E1F700C0000080832FEF31EEC6
:1032F00094E0215030409040E1F700C0000010827F
:103300002FEF31EE94E0215030409040E1F700C0C3
:10331000000080832FEF31EE94E021503040904048
:10332000E1F700C0000010822FEF31EE94E0215051
:1033300030409040E1F700C0000080832FEF31EE75
:1033400094E0215030409040E1F700C0000010822E
:103350002FEF31EE94E0215030409040E1F700C073
:10336000000080832FEF31EE94E0215030409040F8
:10337000E1F700C0000010822FEF31EE94E0215001
:1033800030409040E1F700C0000080832FEF31EE25
:1033900094E0215030409040E1F700C000001082DE
:1033A0002FEF31EE94E0215030409040E1F700C023
:1033B000000080832FEF31EE94E0215030409040A8
:1033C000E1F700C0000010822FEF31EE94E02150B1
:1033D00030409040E1F700C0000080832FEF31EED5
:1033E00094E0215030409040E1F700C0000010828E
:1033F0002FEF31EE94E0215030409040E1F700C0D3
:10340000000080832FEF31EE94E021503040904057
:10341000E1F700C0000010822FEF31EE94E0215060
:1034200030409040E1F700C0000080832FEF31EE84
:1034300094E0215030409040E1F700C0000010823D
:103440002FEF31EE94E0215030409040E1F700C082
:10345000000080832FEF31EE94E021503040904007
:10346000E1F700C0000010822FEF31EE94E0215010
:1034700030409040E1F700C0000080832FEF31EE34
:1034800094E0215030409040E1F700C000001082ED
:103490002FEF31EE94E0215030409040E1F700C032
:1034A000000080832FEF31EE94E0215030409040B7
:1034B000E1F700C0000010822FEF31EE94E02150C0
:1034C00030409040E1F700C0000080832FEF31EEE4
:1034D00094E0215030409040E1F700C0000010829D
:1034E0002FEF31EE94E0215030409040E1F700C0E2
:1034F000000080832FEF31EE94E021503040904067
:10350000E1F700C0000010822FEF31EE94E021506F
:1035100030409040E1F700C0000080832FEF31EE93
:1035200094E0215030409040E1F700C0000010824C
:103530002FEF31EE94E0215030409040E1F700C091
:10354000000080832FEF31EE94E021503040904016
:10355000E1F700C0000010822FEF31EE94E021501F
:1035600030409040E1F700C0000080832FEF31EE43
:1035700094E0215030409040E1F700C000001082FC
:103580002FEF31EE94E0215030409040E1F700C041
:10359000000080832FEF31EE94E0215030409040C6
:1035A000E1F700C0000010822FEF31EE94E02150CF
:1035B00030409040E1F700C0000080832FEF31EEF3
:1035C00094E0215030409040E1F700C000001082AC
:1035D0002FEF31EE94E0215030409040E1F700C0F1
:1035E000000080832FEF31EE94E021503040904076
:1035F000E1F700C0000010822FEF31EE94E021507F
:1036000030409040E1F700C0000080832FEF31EEA2
:1036100094E0215030409040E1F700C0000010825B
:103620002FEF31EE94E0215030409040E1F700C0A0
:10363000000080832FEF31EE94E021503040904025
:10364000E1F700C0000010822FEF31EE94E021502E
:1036500030409040E1F700C0000080832FEF31EE52
:1036600094E0215030409040E1F700C0000010820B
:103670002FEF31EE94E0215030409040E1F700C050
:10368000000080832FEF31EE94E0215030409040D5
:10369000E1F700C0000010822FEF31EE94E02150DE
:1036A00030409040E1F700C0000080832FEF31EE02
:1036B00094E0215030409040E1F700C000001082BB
:1036C0002FEF31EE94E0215030409040E1F700C000
:1036D000000080832FEF31EE94E021503040904085
:1036E000E1F700C0000010822FEF31EE94E021508E
:1036F00030409040E1F700C0000080832FEF31EEB2
:1037000094E0215030409040E1F700C0000010826A
:103710002FEF31EE94E0215030409040E1F700C0AF
:10372000000080832FEF31EE94E021503040904034
:10373000E1F700C0000010822FEF31EE94E021503D
:1037400030409040E1F700C0000080832FEF31EE61
:1037500094E0215030409040E1F700C0000010821A
:103760002FEF31EE94E0215030409040E1F700C05F
:10377000000080832FEF31EE94E0215030409040E4
:10378000E1F700C0000010822FEF31EE94E02150ED
:1037900030409040E1F700C0000080832FEF31EE11
:1037A00094E0215030409040E1F700C000001082CA
:1037B0002FEF31EE94E0215030409040E1F700C00F
:1037C000000080832FEF31EE94E021503040904094
:1037D000E1F700C0000010822FEF31EE94E021509D
:1037E00030409040E1F700C0000080832FEF31EEC1
:1037F00094E0215030409040E1F700C0000010827A
:103800002FEF31EE94E0215030409040E1F700C0BE
:10381000000080832FEF31EE94E021503040904043
:10382000E1F700C0000010822FEF31EE94E021504C
:1038300030409040E1F700C0000080832FEF31EE70
:1038400094E0215030409040E1F700C00000108229
:103850002FEF31EE94E0215030409040E1F700C06E
:10386000000080832FEF31EE94E0215030409040F3
:10387000E1F700C0000010822FEF31EE94E02150FC
:1038800030409040E1F700C0000080832FEF31EE20
:1038900094E0215030409040E1F700C000001082D9
:1038A0002FEF31EE94E0215030409040E1F700C01E
:1038B000000080832FEF31EE94E0215030409040A3
:1038C000E1F700C0000010822FEF31EE94E02150AC
:1038D00030409040E1F700C0000080832FEF31EED0
:1038E00094E0215030409040E1F700C00000108289
:1038F0002FEF31EE94E0215030409040E1F700C0CE
:10390000000080832FEF31EE94E021503040904052
:10391000E1F700C0000010822FEF31EE94E021505B
:1039200030409040E1F700C0000080832FEF31EE7F
:1039300094E0215030409040E1F700C00000108238
:103940002FEF31EE94E0215030409040E1F700C07D
:10395000000080832FEF31EE94E021503040904002
:10396000E1F700C0000010822FEF31EE94E021500B
:1039700030409040E1F700C0000080832FEF31EE2F
:1039800094E0215030409040E1F700C000001082E8
:103990002FEF31EE94E0215030409040E1F700C02D
:1039A000000080832FEF31EE94E0215030409040B2
:1039B000E1F700C0000010822FEF31EE94E02150BB
:1039C00030409040E1F700C0000080832FEF31EEDF
:1039D00094E0215030409040E1F700C00000108298
:1039E0002FEF31EE94E0215030409040E1F700C0DD
:1039F000000080832FEF31EE94E021503040904062
:103A0000E1F700C0000010822FEF31EE94E021506A
:103A100030409040E1F700C0000080832FEF31EE8E
:103A200094E0215030409040E1F700C00000108247
:103A30002FEF31EE94E0215030409040E1F700C08C
:103A4000000080832FEF31EE94E021503040904011
:103A5000E1F700C0000010822FEF31EE94E021501A
:103A600030409040E1F700C0000080832FEF31EE3E
:103A700094E0215030409040E1F700C000001082F7
:103A80002FEF31EE94E0215030409040E1F700C03C
:103A9000000080832FEF31EE94E0215030409040C1
:103AA000E1F700C0000010822FEF31EE94E02150CA
:103AB00030409040E1F700C0000080832FEF31EEEE
:103AC00094E0215030409040E1F700C000001082A7
:103AD0002FEF31EE94E0215030409040E1F700C0EC
:103AE000000080832FEF31EE94E021503040904071
:103AF000E1F700C0000010822FEF31EE94E021507A
:103B000030409040E1F700C0000080832FEF31EE9D
:103B100094E0215030409040E1F700C00000108256
:103B20002FEF31EE94E0215030409040E1F700C09B
:103B3000000080832FEF31EE94E021503040904020
:103B4000E1F700C0000010822FEF31EE94E0215029
:103B500030409040E1F700C0000080832FEF31EE4D
:103B600094E0215030409040E1F700C00000108206
:103B70002FEF31EE94E0215030409040E1F700C04B
:103B8000000080832FEF31EE94E0215030409040D0
:103B9000E1F700C0000010822FEF31EE94E02150D9
:103BA00030409040E1F700C0000080832FEF31EEFD
:103BB00094E0215030409040E1F700C000001082B6
:103BC0002FEF31EE94E0215030409040E1F700C0FB
:103BD000000080832FEF31EE94E021503040904080
:103BE000E1F700C0000010822FEF31EE94E0215089
:103BF00030409040E1F700C0000080832FEF31EEAD
:103C000094E0215030409040E1F700C00000108265
:103C10002FEF31EE94E0215030409040E1F700C0AA
:103C2000000080832FEF31EE94E02150304090402F
:103C3000E1F700C0000010822FEF31EE94E0215038
:103C400030409040E1F700C0000080832FEF31EE5C
:103C500094E0215030409040E1F700C00000108215
:103C60002FEF31EE94E0215030409040E1F700C05A
:103C7000000080832FEF31EE94E0215030409040DF
:103C8000E1F700C0000010822FEF31EE94E02150E8
:103C900030409040E1F700C0000080832FEF31EE0C
:103CA00094E0215030409040E1F700C000001082C5
:103CB0002FEF31EE94E0215030409040E1F700C00A
:103CC000000080832FEF31EE94E02150304090408F
:103CD000E1F700C0000010822FEF31EE94E0215098
:103CE00030409040E1F700C0000080832FEF31EEBC
:103CF00094E0215030409040E1F700C00000108275
:103D00002FEF31EE94E0215030409040E1F700C0B9
:103D1000000080832FEF31EE94E02150304090403E
:103D2000E1F700C0000010822FEF31EE94E0215047
:103D300030409040E1F700C0000080832FEF31EE6B
:103D400094E0215030409040E1F700C00000108224
:103D50002FEF31EE94E0215030409040E1F700C069
:103D6000000080832FEF31EE94E0215030409040EE
:103D7000E1F700C0000010822FEF31EE94E02150F7
:103D800030409040E1F700C0000080832FEF31EE1B
:103D900094E0215030409040E1F700C000001082D4
:103DA0002FEF31EE94E0215030409040E1F700C019
:103DB000000080832FEF31EE94E02150304090409E
:103DC000E1F700C0000010822FEF31EE94E02150A7
:103DD00030409040E1F700C0000080832FEF31EECB
:103DE00094E0215030409040E1F700C00000108284
:103DF0002FEF31EE94E0215030409040E1F700C0C9
:103E0000000080832FEF31EE94E02150304090404D
:103E1000E1F700C0000010822FEF31EE94E0215056
:103E200030409040E1F700C0000080832FEF31EE7A
:103E300094E0215030409040E1F700C00000108233
:103E40002FEF31EE94E0215030409040E1F700C078
:103E5000000080832FEF31EE94E0215030409040FD
:103E6000E1F700C0000010822FEF31EE94E0215006
:103E700030409040E1F700C0000080832FEF31EE2A
:103E800094E0215030409040E1F700C000001082E3
:103E90002FEF31EE94E0215030409040E1F700C028
:103EA000000080832FEF31EE94E0215030409040AD
:103EB000E1F700C0000010822FEF31EE94E02150B6
:103EC00030409040E1F700C0000080832FEF31EEDA
:103ED00094E0215030409040E1F700C00000108293
:103EE0002FEF31EE94E0215030409040E1F700C0D8
:103EF000000080832FEF31EE94E02150304090405D
:103F0000E1F700C0000010822FEF31EE94E0215065
:103F100030409040E1F700C0000080832FEF31EE89
:103F200094E0215030409040E1F700C00000108242
:103F30002FEF31EE94E0215030409040E1F700C087
:103F4000000080832FEF31EE94E02150304090400C
:103F5000E1F700C0000010822FEF31EE94E0215015
:103F600030409040E1F700C0000080832FEF31EE39
:103F700094E0215030409040E1F700C000001082F2
:103F80002FEF31EE94E0215030409040E1F700C037
:103F9000000080832FEF31EE94E0215030409040BC
:103FA000E1F700C0000010822FEF31EE94E02150C5
:103FB00030409040E1F700C0000080832FEF31EEE9
:103FC00094E0215030409040E1F700C000001082A2
:103FD0002FEF31EE94E0215030409040E1F700C0E7
:103FE000000080832FEF31EE94E02150304090406C
:103FF000E1F700C0000010822FEF31EE94E0215075
:1040000030409040E1F700C0000080832FEF31EE98
:1040100094E0215030409040E1F700C00000108251
:104020002FEF31EE94E0215030409040E1F700C096
:10403000000080832FEF31EE94E02150304090401B
:10404000E1F700C0000010822FEF31EE94E0215024
:1040500030409040E1F700C0000080832FEF31EE48
:1040600094E0215030409040E1F700C00000108201
:104070002FEF31EE94E0215030409040E1F700C046
:10408000000080832FEF31EE94E0215030409040CB
:10409000E1F700C0000010822FEF31EE94E02150D4
:1040A00030409040E1F700C0000080832FEF31EEF8
:1040B00094E0215030409040E1F700C000001082B1
:1040C0002FEF31EE94E0215030409040E1F700C0F6
:1040D000000080832FEF31EE94E02150304090407B
:1040E000E1F700C0000010822FEF31EE94E0215084
:1040F00030409040E1F700C0000080832FEF31EEA8
:1041000094E0215030409040E1F700C00000108260
:104110002FEF31EE94E0215030409040E1F700C0A5
:10412000000080832FEF31EE94E02150304090402A
:10413000E1F700C0000010822FEF31EE94E0215033
:1041400030409040E1F700C0000080832FEF31EE57
:1041500094E0215030409040E1F700C00000108210
:104160002FEF31EE94E0215030409040E1F700C055
:10417000000080832FEF31EE94E0215030409040DA
:10418000E1F700C0000010822FEF31EE94E02150E3
:1041900030409040E1F700C0000080832FEF31EE07
:1041A00094E0215030409040E1F700C000001082C0
:1041B0002FEF31EE94E0215030409040E1F700C005
:1041C000000080832FEF31EE94E02150304090408A
:1041D000E1F700C0000010822FEF31EE94E0215093
:1041E00030409040E1F700C0000080832FEF31EEB7
:1041F00094E0215030409040E1F700C00000108270
:104200002FEF31EE94E0215030409040E1F700C0B4
:10421000000080832FEF31EE94E021503040904039
:10422000E1F700C0000010822FEF31EE94E0215042
:1042300030409040E1F700C0000080832FEF31EE66
:1042400094E0215030409040E1F700C0000010821F
:104250002FEF31EE94E0215030409040E1F700C064
:10426000000080832FEF31EE94E0215030409040E9
:10427000E1F700C0000010822FEF31EE94E02150F2
:1042800030409040E1F700C0000080832FEF31EE16
:1042900094E0215030409040E1F700C000001082CF
:1042A0002FEF31EE94E0215030409040E1F700C014
:1042B000000080832FEF31EE94E021503040904099
:1042C000E1F700C0000010822FEF31EE94E02150A2
:1042D00030409040E1F700C0000080832FEF31EEC6
:1042E00094E0215030409040E1F700C0000010827F
:1042F0002FEF31EE94E0215030409040E1F700C0C4
:10430000000080832FEF31EE94E021503040904048
:10431000E1F700C0000010822FEF31EE94E0215051
:1043200030409040E1F700C0000080832FEF31EE75
:1043300094E0215030409040E1F700C0000010822E
:104340002FEF31EE94E0215030409040E1F700C073
:10435000000080832FEF31EE94E0215030409040F8
:10436000E1F700C0000010822FEF31EE94E0215001
:1043700030409040E1F700C0000080832FEF31EE25
:1043800094E0215030409040E1F700C000001082DE
:104390002FEF31EE94E0215030409040E1F700C023
:1043A000000080832FEF31EE94E0215030409040A8
:1043B000E1F700C0000010822FEF31EE94E02150B1
:1043C00030409040E1F700C0000080832FEF31EED5
:1043D00094E0215030409040E1F700C0000010828E
:1043E0002FEF31EE94E0215030409040E1F700C0D3
:1043F000000080832FEF31EE94E021503040904058
:10440000E1F700C0000010822FEF31EE94E0215060
:1044100030409040E1F700C0000080832FEF31EE84
:1044200094E0215030409040E1F700C0000010823D
:104430002FEF31EE94E0215030409040E1F700C082
:10444000000080832FEF31EE94E021503040904007
:10445000E1F700C0000010822FEF31EE94E0215010
:1044600030409040E1F700C0000080832FEF31EE34
:1044700094E0215030409040E1F700C000001082ED
:104480002FEF31EE94E0215030409040E1F700C032
:10449000000080832FEF31EE94E0215030409040B7
:1044A000E1F700C0000010822FEF31EE94E02150C0
:1044B00030409040E1F700C0000080832FEF31EEE4
:1044C00094E0215030409040E1F700C0000010829D
:1044D0002FEF31EE94E0215030409040E1F700C0E2
:1044E000000080832FEF31EE94E021503040904067
:1044F000E1F700C0000010822FEF31EE94E0215070
:1045000030409040E1F700C0000080832FEF31EE93
:1045100094E0215030409040E1F700C0000010824C
:104520002FEF31EE94E0215030409040E1F700C091
:10453000000080832FEF31EE94E021503040904016
:10454000E1F700C0000010822FEF31EE94E021501F
:1045500030409040E1F700C0000080832FEF31EE43
:1045600094E0215030409040E1F700C000001082FC
:104570002FEF31EE94E0215030409040E1F700C041
:10458000000080832FEF31EE94E0215030409040C6
:10459000E1F700C0000010822FEF31EE94E02150CF
:1045A00030409040E1F700C0000080832FEF31EEF3
:1045B00094E0215030409040E1F700C000001082AC
:1045C0002FEF31EE94E0215030409040E1F700C0F1
:1045D000000080832FEF31EE94E021503040904076
:1045E000E1F700C0000010822FEF31EE94E021507F
:1045F00030409040E1F700C0000080832FEF31EEA3
:1046000094E0215030409040E1F700C0000010825B
:104610002FEF31EE94E0215030409040E1F700C0A0
:10462000000080832FEF31EE94E021503040904025
:10463000E1F700C0000010822FEF31EE94E021502E
:1046400030409040E1F700C0000080832FEF31EE52
:1046500094E0215030409040E1F700C0000010820B
:104660002FEF31EE94E0215030409040E1F700C050
:10467000000080832FEF31EE94E0215030409040D5
:10468000E1F700C0000010822FEF31EE94E02150DE
:1046900030409040E1F700C0000080832FEF31EE02
:1046A00094E0215030409040E1F700C000001082BB
:1046B0002FEF31EE94E0215030409040E1F700C000
:1046C000000080832FEF31EE94E021503040904085
:1046D000E1F700C0000010822FEF31EE94E021508E
:1046E00030409040E1F700C0000080832FEF31EEB2
:1046F00094E0215030409040E1F700C0000010826B
:104700002FEF31EE94E0215030409040E1F700C0AF
:10471000000080832FEF31EE94E021503040904034
:10472000E1F700C0000010822FEF31EE94E021503D
:1047300030409040E1F700C0000080832FEF31EE61
:1047400094E0215030409040E1F700C0000010821A
:104750002FEF31EE94E0215030409040E1F700C05F
:10476000000080832FEF31EE94E0215030409040E4
:10477000E1F700C0000010822FEF31EE94E02150ED
:1047800030409040E1F700C0000080832FEF31EE11
:1047900094E0215030409040E1F700C000001082CA
:1047A0002FEF31EE94E0215030409040E1F700C00F
:1047B000000080832FEF31EE94E021503040904094
:1047C000E1F700C0000010822FEF31EE94E021509D
:1047D00030409040E1F700C0000080832FEF31EEC1
:1047E00094E0215030409040E1F700C0000010827A
:1047F0002FEF31EE94E0215030409040E1F700C0BF
:10480000000080832FEF31EE94E021503040904043
:10481000E1F700C0000010822FEF31EE94E021504C
:1048200030409040E1F700C0000080832FEF31EE70
:1048300094E0215030409040E1F700C00000108229
:104840002FEF31EE94E0215030409040E1F700C06E
:10485000000010822FEF31EE94E021503040904064
:10486000E1F700C0000080832FEF31EE94E021508B
:1048700030409040E1F700C0000010822FEF31EE91
:1048800094E0215030409040E1F700C00000808368
:104890002FEF31EE94E0215030409040E1F700C01E
:1048A000000010822FEF31EE94E021503040904014
:1048B000E1F700C0000080832FEF31EE94E021503B
:1048C00030409040E1F700C0000010822FEF31EE41
:1048D00094E0215030409040E1F700C00000808318
:1048E0002FEF31EE94E0215030409040E1F700C0CE
:1048F000000010822FEF31EE94E0215030409040C4
:10490000E1F700C0000080832FEF31EE94E02150EA
:1049100030409040E1F700C0000010822FEF31EEF0
:1049200094E0215030409040E1F700C000008083C7
:104930002FEF31EE94E0215030409040E1F700C07D
:10494000000010822FEF31EE94E021503040904073
:10495000E1F700C0000080832FEF31EE94E021509A
:1049600030409040E1F700C0000010822FEF31EEA0
:1049700094E0215030409040E1F700C00000808377
:104980002FEF31EE94E0215030409040E1F700C02D
:10499000000010822FEF31EE94E021503040904023
:1049A000E1F700C0000080832FEF31EE94E021504A
:1049B00030409040E1F700C0000010822FEF31EE50
:1049C00094E0215030409040E1F700C00000808327
:1049D0002FEF31EE94E0215030409040E1F700C0DD
:1049E000000010822FEF31EE94E0215030409040D3
:1049F000E1F700C0000080832FEF31EE94E02150FA
:104A000030409040E1F700C0000010822FEF31EEFF
:104A100094E0215030409040E1F700C000008083D6
:104A20002FEF31EE94E0215030409040E1F700C08C
:104A3000000010822FEF31EE94E021503040904082
:104A4000E1F700C0000080832FEF31EE94E02150A9
:104A500030409040E1F700C0000010822FEF31EEAF
:104A600094E0215030409040E1F700C00000808386
:104A70002FEF31EE94E0215030409040E1F700C03C
:104A8000000010822FEF31EE94E021503040904032
:104A9000E1F700C0000080832FEF31EE94E0215059
:104AA00030409040E1F700C0000010822FEF31EE5F
:104AB00094E0215030409040E1F700C00000808336
:104AC0002FEF31EE94E0215030409040E1F700C0EC
:104AD000000010822FEF31EE94E0215030409040E2
:104AE000E1F700C0000080832FEF31EE94E0215009
:104AF00030409040E1F700C0000010822FEF31EE0F
:104B000094E0215030409040E1F700C000008083E5
:104B10002FEF31EE94E0215030409040E1F700C09B
:104B2000000010822FEF31EE94E021503040904091
:104B3000E1F700C0000080832FEF31EE94E02150B8
:104B400030409040E1F700C0000010822FEF31EEBE
:104B500094E0215030409040E1F700C00000808395
:104B60002FEF31EE94E0215030409040E1F700C04B
:104B7000000010822FEF31EE94E021503040904041
:104B8000E1F700C0000080832FEF31EE94E0215068
:104B900030409040E1F700C0000010822FEF31EE6E
:104BA00094E0215030409040E1F700C00000808345
:104BB0002FEF31EE94E0215030409040E1F700C0FB
:104BC000000010822FEF31EE94E0215030409040F1
:104BD000E1F700C0000080832FEF31EE94E0215018
:104BE00030409040E1F700C0000010822FEF31EE1E
:104BF00094E0215030409040E1F700C000008083F5
:104C00002FEF31EE94E0215030409040E1F700C0AA
:104C1000000010822FEF31EE94E0215030409040A0
:104C2000E1F700C0000080832FEF31EE94E02150C7
:104C300030409040E1F700C0000010822FEF31EECD
:104C400094E0215030409040E1F700C000008083A4
:104C50002FEF31EE94E0215030409040E1F700C05A
:104C6000000010822FEF31EE94E021503040904050
:104C7000E1F700C0000080832FEF31EE94E0215077
:104C800030409040E1F700C0000010822FEF31EE7D
:104C900094E0215030409040E1F700C00000808354
:104CA0002FEF31EE94E0215030409040E1F700C00A
:104CB000000010822FEF31EE94E021503040904000
:104CC000E1F700C0000080832FEF31EE94E0215027
:104CD00030409040E1F700C0000010822FEF31EE2D
:104CE00094E0215030409040E1F700C00000808304
:104CF0002FEF31EE94E0215030409040E1F700C0BA
:104D0000000010822FEF31EE94E0215030409040AF
:104D1000E1F700C0000080832FEF31EE94E02150D6
:104D200030409040E1F700C0000010822FEF31EEDC
:104D300094E0215030409040E1F700C000008083B3
:104D40002FEF31EE94E0215030409040E1F700C069
:104D5000000010822FEF31EE94E02150304090405F
:104D6000E1F700C0000080832FEF31EE94E0215086
:104D700030409040E1F700C0000010822FEF31EE8C
:104D800094E0215030409040E1F700C00000808363
:104D90002FEF31EE94E0215030409040E1F700C019
:104DA000000010822FEF31EE94E02150304090400F
:104DB000E1F700C0000080832FEF31EE94E0215036
:104DC00030409040E1F700C0000010822FEF31EE3C
:104DD00094E0215030409040E1F700C00000808313
:104DE0002FEF31EE94E0215030409040E1F700C0C9
:104DF000000010822FEF31EE94E0215030409040BF
:104E0000E1F700C0000080832FEF31EE94E02150E5
:104E100030409040E1F700C0000010822FEF31EEEB
:104E200094E0215030409040E1F700C000008083C2
:104E30002FEF31EE94E0215030409040E1F700C078
:104E4000000010822FEF31EE94E02150304090406E
:104E5000E1F700C0000080832FEF31EE94E0215095
:104E600030409040E1F700C0000010822FEF31EE9B
:104E700094E0215030409040E1F700C00000808372
:104E80002FEF31EE94E0215030409040E1F700C028
:104E9000000010822FEF31EE94E02150304090401E
:104EA000E1F700C0000080832FEF31EE94E0215045
:104EB00030409040E1F700C0000010822FEF31EE4B
:104EC00094E0215030409040E1F700C00000808322
:104ED0002FEF31EE94E0215030409040E1F700C0D8
:104EE000000010822FEF31EE94E0215030409040CE
:104EF000E1F700C0000080832FEF31EE94E02150F5
:104F000030409040E1F700C0000010822FEF31EEFA
:104F100094E0215030409040E1F700C000008083D1
:104F20002FEF31EE94E0215030409040E1F700C087
:104F3000000010822FEF31EE94E02150304090407D
:104F4000E1F700C0000080832FEF31EE94E02150A4
:104F500030409040E1F700C0000010822FEF31EEAA
:104F600094E0215030409040E1F700C00000808381
:104F70002FEF31EE94E0215030409040E1F700C037
:104F8000000010822FEF31EE94E02150304090402D
:104F9000E1F700C0000080832FEF31EE94E0215054
:104FA00030409040E1F700C0000010822FEF31EE5A
:104FB00094E0215030409040E1F700C00000808331
:104FC0002FEF31EE94E0215030409040E1F700C0E7
:104FD000000010822FEF31EE94E0215030409040DD
:104FE000E1F700C0000080832FEF31EE94E0215004
:104FF00030409040E1F700C0000010822FEF31EE0A
:1050000094E0215030409040E1F700C000008083E0
:105010002FEF31EE94E0215030409040E1F700C096
:10502000000010822FEF31EE94E02150304090408C
:10503000E1F700C0000080832FEF31EE94E02150B3
:1050400030409040E1F700C0000010822FEF31EEB9
:1050500094E0215030409040E1F700C00000808390
:105060002FEF31EE94E0215030409040E1F700C046
:10507000000010822FEF31EE94E02150304090403C
:10508000E1F700C0000080832FEF31EE94E0215063
:1050900030409040E1F700C0000010822FEF31EE69
:1050A00094E0215030409040E1F700C00000808340
:1050B0002FEF31EE94E0215030409040E1F700C0F6
:1050C000000010822FEF31EE94E0215030409040EC
:1050D000E1F700C0000080832FEF31EE94E0215013
:1050E00030409040E1F700C0000010822FEF31EE19
:1050F00094E0215030409040E1F700C000008083F0
:105100002FEF31EE94E0215030409040E1F700C0A5
:10511000000010822FEF31EE94E02150304090409B
:10512000E1F700C0000080832FEF31EE94E02150C2
:1051300030409040E1F700C0000010822FEF31EEC8
:1051400094E0215030409040E1F700C0000080839F
:105150002FEF31EE94E0215030409040E1F700C055
:10516000000010822FEF31EE94E02150304090404B
:10517000E1F700C0000080832FEF31EE94E0215072
:1051800030409040E1F700C0000010822FEF31EE78
:1051900094E0215030409040E1F700C0000080834F
:1051A0002FEF31EE94E0215030409040E1F700C005
:1051B000000010822FEF31EE94E0215030409040FB
:1051C000E1F700C0000080832FEF31EE94E0215022
:1051D00030409040E1F700C0000010822FEF31EE28
:1051E00094E0215030409040E1F700C000008083FF
:1051F0002FEF31EE94E0215030409040E1F700C0B5
:10520000000010822FEF31EE94E0215030409040AA
:10521000E1F700C0000080832FEF31EE94E02150D1
:1052200030409040E1F700C0000010822FEF31EED7
:1052300094E0215030409040E1F700C000008083AE
:105240002FEF31EE94E0215030409040E1F700C064
:10525000000010822FEF31EE94E02150304090405A
:10526000E1F700C0000080832FEF31EE94E0215081
:1052700030409040E1F700C0000010822FEF31EE87
:1052800094E0215030409040E1F700C0000080835E
:105290002FEF31EE94E0215030409040E1F700C014
:1052A000000010822FEF31EE94E02150304090400A
:1052B000E1F700C0000080832FEF31EE94E0215031
:1052C00030409040E1F700C0000010822FEF31EE37
:1052D00094E0215030409040E1F700C0000080830E
:1052E0002FEF31EE94E0215030409040E1F700C0C4
:1052F000000010822FEF31EE94E0215030409040BA
:10530000E1F700C0000080832FEF31EE94E02150E0
:1053100030409040E1F700C0000010822FEF31EEE6
:1053200094E0215030409040E1F700C000008083BD
:105330002FEF31EE94E0215030409040E1F700C073
:10534000000010822FEF31EE94E021503040904069
:10535000E1F700C0000080832FEF31EE94E0215090
:1053600030409040E1F700C0000010822FEF31EE96
:1053700094E0215030409040E1F700C0000080836D
:105380002FEF31EE94E0215030409040E1F700C023
:10539000000010822FEF31EE94E021503040904019
:1053A000E1F700C0000080832FEF31EE94E0215040
:1053B00030409040E1F700C0000010822FEF31EE46
:1053C00094E0215030409040E1F700C0000080831D
:1053D0002FEF31EE94E0215030409040E1F700C0D3
:1053E000000010822FEF31EE94E0215030409040C9
:1053F000E1F700C0000080832FEF31EE94E02150F0
:1054000030409040E1F700C0000010822FEF31EEF5
:1054100094E0215030409040E1F700C000008083CC
:105420002FEF31EE94E0215030409040E1F700C082
:10543000000010822FEF31EE94E021503040904078
:10544000E1F700C0000080832FEF31EE94E021509F
:1054500030409040E1F700C0000010822FEF31EEA5
:1054600094E0215030409040E1F700C0000080837C
:105470002FEF31EE94E0215030409040E1F700C032
:10548000000010822FEF31EE94E021503040904028
:10549000E1F700C0000080832FEF31EE94E021504F
:1054A00030409040E1F700C0000010822FEF31EE55
:1054B00094E0215030409040E1F700C0000080832C
:1054C0002FEF31EE94E0215030409040E1F700C0E2
:1054D000000010822FEF31EE94E0215030409040D8
:1054E000E1F700C0000080832FEF31EE94E02150FF
:1054F00030409040E1F700C0000010822FEF31EE05
:1055000094E0215030409040E1F700C000008083DB
:105510002FEF31EE94E0215030409040E1F700C091
:10552000000010822FEF31EE94E021503040904087
:10553000E1F700C0000080832FEF31EE94E02150AE
:1055400030409040E1F700C0000010822FEF31EEB4
:1055500094E0215030409040E1F700C0000080838B
:105560002FEF31EE94E0215030409040E1F700C041
:10557000000010822FEF31EE94E021503040904037
:10558000E1F700C0000080832FEF31EE94E021505E
:1055900030409040E1F700C0000010822FEF31EE64
:1055A00094E0215030409040E1F700C0000080833B
:1055B0002FEF31EE94E0215030409040E1F700C0F1
:1055C000000010822FEF31EE94E0215030409040E7
:1055D000E1F700C0000080832FEF31EE94E021500E
:1055E00030409040E1F700C0000010822FEF31EE14
:1055F00094E0215030409040E1F700C000008083EB
:105600002FEF31EE94E0215030409040E1F700C0A0
:10561000000010822FEF31EE94E021503040904096
:10562000E1F700C0000080832FEF31EE94E02150BD
:1056300030409040E1F700C0000010822FEF31EEC3
:1056400094E0215030409040E1F700C0000080839A
:105650002FEF31EE94E0215030409040E1F700C050
:10566000000010822FEF31EE94E021503040904046
:10567000E1F700C0000080832FEF31EE94E021506D
:1056800030409040E1F700C0000010822FEF31EE73
:1056900094E0215030409040E1F700C000001082BB
:1056A0002FEF31EE94E0215030409040E1F700C000
:1056B000000080832FEF31EE94E021503040904085
:1056C000E1F700C0000010822FEF31EE94E021508E
:1056D00030409040E1F700C0000080832FEF31EEB2
:1056E00094E0215030409040E1F700C0000010826B
:1056F0002FEF31EE94E0215030409040E1F700C0B0
:10570000000080832FEF31EE94E021503040904034
:10571000E1F700C0000010822FEF31EE94E021503D
:1057200030409040E1F700C0000080832FEF31EE61
:1057300094E0215030409040E1F700C0000010821A
:105740002FEF31EE94E0215030409040E1F700C05F
:10575000000080832FEF31EE94E0215030409040E4
:10576000E1F700C0000010822FEF31EE94E02150ED
:1057700030409040E1F700C0000080832FEF31EE11
:1057800094E0215030409040E1F700C000001082CA
:105790002FEF31EE94E0215030409040E1F700C00F
:1057A000000080832FEF31EE94E021503040904094
:1057B000E1F700C0000010822FEF31EE94E021509D
:1057C00030409040E1F700C0000080832FEF31EEC1
:1057D00094E0215030409040E1F700C0000010827A
:1057E0002FEF31EE94E0215030409040E1F700C0BF
:1057F000000080832FEF31EE94E021503040904044
:10580000E1F700C0000010822FEF31EE94E021504C
:1058100030409040E1F700C0000080832FEF31EE70
:1058200094E0215030409040E1F700C00000108229
:105830002FEF31EE94E0215030409040E1F700C06E
:10584000000080832FEF31EE94E0215030409040F3
:10585000E1F700C0000010822FEF31EE94E02150FC
:1058600030409040E1F700C0000080832FEF31EE20
:1058700094E0215030409040E1F700C000001082D9
:105880002FEF31EE94E0215030409040E1F700C01E
:10589000000080832FEF31EE94E0215030409040A3
:1058A000E1F700C0000010822FEF31EE94E02150AC
:1058B00030409040E1F700C0000080832FEF31EED0
:1058C00094E0215030409040E1F700C00000108289
:1058D0002FEF31EE94E0215030409040E1F700C0CE
:1058E000000080832FEF31EE94E021503040904053
:1058F000E1F700C0000010822FEF31EE94E021505C
:1059000030409040E1F700C0000080832FEF31EE7F
:1059100094E0215030409040E1F700C00000108238
:105920002FEF31EE94E0215030409040E1F700C07D
:10593000000080832FEF31EE94E021503040904002
:10594000E1F700C0000010822FEF31EE94E021500B
:1059500030409040E1F700C0000080832FEF31EE2F
:1059600094E0215030409040E1F700C000001082E8
:105970002FEF31EE94E0215030409040E1F700C02D
:10598000000080832FEF31EE94E0215030409040B2
:10599000E1F700C0000010822FEF31EE94E02150BB
:1059A00030409040E1F700C0000080832FEF31EEDF
:1059B00094E0215030409040E1F700C00000108298
:1059C0002FEF31EE94E0215030409040E1F700C0DD
:1059D000000080832FEF31EE94E021503040904062
:1059E000E1F700C0000010822FEF31EE94E021506B
:1059F00030409040E1F700C0000080832FEF31EE8F
:105A000094E0215030409040E1F700C00000108247
:105A10002FEF31EE94E0215030409040E1F700C08C
:105A2000000080832FEF31EE94E021503040904011
:105A3000E1F700C0000010822FEF31EE94E021501A
:105A400030409040E1F700C0000080832FEF31EE3E
:105A500094E0215030409040E1F700C000001082F7
:105A60002FEF31EE94E0215030409040E1F700C03C
:105A7000000080832FEF31EE94E0215030409040C1
:105A8000E1F700C0000010822FEF31EE94E02150CA
:105A900030409040E1F700C0000080832FEF31EEEE
:105AA00094E0215030409040E1F700C000001082A7
:105AB0002FEF31EE94E0215030409040E1F700C0EC
:105AC000000080832FEF31EE94E021503040904071
:105AD000E1F700C0000010822FEF31EE94E021507A
